:020000040800F2
:1000000000000220B5150008F1140008F9140008DA
:10001000011500080915000811150008000000006E
:10002000000000000000000000000000191500089A
:1000300027150008000000003515000845150008C8
:100040000516000805160008051600080516000824
:100050000516000805160008051600080516000814
:100060000516000805160008051600080516000804
:1000700005160008051600080516000805160008F4
:1000800005160008051600080516000805160008E4
:1000900005160008051600080516000805160008D4
:1000A00005160008051600080516000805160008C4
:1000B00005160008051600080516000805160008B4
:1000C00005160008051600080516000805160008A4
:1000D000051600087D15000805160008051600081D
:1000E0000516000805160008051600080516000884
:1000F0000516000805160008051600080516000874
:100100000516000805160008051600080516000863
:100110000516000805160008051600080516000853
:100120000516000805160008051600080516000843
:100130000516000805160008051600080516000833
:100140000516000805160008051600080516000823
:100150000516000805160008051600080516000813
:100160000516000805160008051600080516000803
:100170000516000805160008051600080000000016
:08018000051600080516000831
:1001880010B5054C237833B9044B13B10448AFF3C9
:1001980000800123237010BD6000002000000000D3
:1001A800603B000808B5034B1BB103490348AFF394
:1001B800008008BD0000000064000020603B0008CB
:1001C80053B94AB9002908BF00281CBF4FF0FF31B6
:1001D8004FF0FF3000F088B9ADF1080C6DE904CE9E
:1001E80000F006F8DDF804E0DDE9022304B070470A
:1001F8002DE9F047089D8E4604468846002B4AD1D3
:100208008A42174662D9B2FA82F64EB1C6F1200385
:1002180001FA06F820FA03F3B74043EA0808B440A5
:100228004FEA174E1FFA87FCB8FBFEF1230C0EFBB2
:10023800118843EA084301FB0CF29A4209D9FB18DA
:1002480001F1FF3080F0EA809A4240F2E7800239FB
:100258003B449A1AA3B2B2FBFEF00EFB102243EA0B
:10026800024300FB0CFC9C4509D9FB1800F1FF3246
:1002780080F0D6809C4540F2D3803B44023840EA67
:100288000140A3EB0C0300211DB1F3400022C5E996
:100298000032BDE8F0878B4205D90DB1C5E90001F0
:1002A80000210846F5E7B3FA83F1002946D17345E2
:1002B80002D3824200F20581841A6EEB0302012008
:1002C8009046002DE5D0C5E90048E2E7002A00F095
:1002D8009080B2FA82F6002E40F0A4808A1A030CAD
:1002E8004FEA174E80B2BCB20121B2FBFEFC0EFBF6
:1002F8001C2243EA024304FB0CF29A4207D9FB187A
:100308000CF1FF3802D29A4200F2E080C4469B1AF0
:10031800B3FBFEF20EFB123340EA034302FB04F484
:100328009C4207D9FB1802F1FF3002D29C4200F22E
:10033800CA8002461B1B42EA0C40A5E7C1F1200611
:100348008B4022FA06F71F430EFA01F420FA06F34F
:100358002EFA06FE4FEA1749234300FA01F81FFA5E
:1003680087FCBEFBF9F01C0C09FB10EE44EA0E44B6
:1003780000FB0CFEA64502FA01F209D93C1900F16E
:10038800FF3A80F09C80A64540F2998002383C44B0
:10039800A4EB0E041FFA83FEB4FBF9F309FB134424
:1003A8004EEA044403FB0CFCA44508D93C1903F1AC
:1003B800FF3E80F08280A4457FD9023B3C4443EA5B
:1003C8000040A4EB0C04A0FB02EC64457346E14634
:1003D80062D35FD05DB1B8EB030264EB090404FAA1
:1003E80006F622FA01F31E43CC40C5E90064002159
:1003F8004FE7B1FBF2FC010C41EA0E4180B240EA42
:1004080001423B4638463C46B846BE462026B1FB2C
:10041800F7F1A2EB080241EA0C4166E7014618E74A
:1004280010462CE7C6F120022EFA02F3B740B1407D
:1004380020FA02F24FEA174E0A43B3FBFEF8BCB2A9
:100448000EFB1833110C41EA034108FB04F9B040D4
:1004580089454FEA104380B23ED9791808F1FF3C2C
:1004680001D289451FD8A1EB0901B1FBFEF909FBAF
:1004780004F80EFB191192B242EA0142424529D210
:10048800BA1809F1FF31C4D24245C2D2A9F102011A
:100498003A44BEE7F0459DD2BEEB02036CEB070C75
:1004A8000138E14696E7A7EB09094944A8F1020C8F
:1004B800B1FBFEF909FB04F8DBE773467FE750461A
:1004C80066E70846FDE63B44023A33E7ACF1020C26
:1004D8003B441CE749469CE7A1EB0901C446B1FB34
:1004E800FEF909FB04F8C4E7704700BF80B400AF09
:1004F800BFF34F8F00BF064BDB6803F4E06204498B
:10050800044B1343CB60BFF34F8F00BF00BFFDE721
:1005180000ED00E00400FA0580B483B000AF786015
:10052800054B5A6A04497B6813434B6200BF0C377A
:10053800BD465DF8047B70470038024080B483B044
:1005480000AF7860064B5A6A7B68DB430449134066
:100558004B6200BF0C37BD465DF8047B704700BF97
:100568000038024080B584B000AFC823FB73002375
:10057800BB73674B1B78002B00F0B480654B1B885E
:100588005A1C91B2634A1180B3F57A7F40F2AA806F
:100598005F4B00221A70604B00221A705F4B0022DA
:1005A8001A705C4B00221A809CE05D4B1B68184651
:1005B80003F097F803467B73554B1B7883F00103D0
:1005C800DBB2002B1FD0534B00221A80524A7B7B90
:1005D8001370514B1B78002B0ED04F4B1B78FF2B01
:1005E8000AD04D4B1A784F4B1A704C4B01221A7097
:1005F800474B01221A7075E0484B00221A70444B91
:1006080000221A706EE0454B1B785A1CD1B2434A3F
:1006180011701946434A7B7B53543F4B1A783F4B22
:100628001B789A425ED23A4B00221A703A4B00224B
:100638001A7000237B8100237B603A4B1B780133BF
:100648007B817B89043B374A13441B687B607B8929
:10065800043B7A681946334800F0F6FA0346002B43
:1006680003D100F029FB00234DE02E4B5B78103BB3
:10067800052B32D801A252F823F000BF9D060008CE
:10068800A9060008B5060008C1060008CD0600083E
:10069800D9060008234800F047F80123BB731FE080
:1006A800204800F068F80123BB7319E01D4800F0EA
:1006B80003F90123BB7313E01A4800F085F90123FD
:1006C800BB730DE0174800F0FDF90123BB7307E089
:1006D80000F010FB0123BB7302E00023BB7300BFD3
:1006E800BB7B10E0FB7B5A1EFA73002B0BD00C4B24
:1006F8001B68184602F0B6FF034683F00103DBB21D
:10070800002B7FF452AF18461037BD4680BD00BF9E
:1007180025010020260100202401002023010020BB
:100728005C0000208C00002080B584B000AF7860A9
:100738000023FB81084B1B689BB2C3F30B039BB2DE
:10074800FB8107F10E030221184600F0C3FA00BF2F
:100758001037BD4680BD00BF002004E080B588B0DA
:1007680000AF3B1D184601F030FA7B69DBB2184632
:100778002037BD4680BD80B584B000AF78600023C7
:10078800FB73FFF7EBFF0346FB73FB7BAA2B02D13E
:100798000023FB7304E0FB7B552B01D10123FB7382
:1007A80007F10F030121184600F094FA00BF103733
:1007B800BD4680BD80B586B000AF78607B681B6899
:1007C800B3F1FF3F68D0374B01221A700121354839
:1007D80000F080FA012001F0D3F800BF324B1B680B
:1007E80003F58373184602F03DFF034683F00103C7
:1007F800DBB2002BF2D172B600BF0023FB7510E00C
:100808002A4AFB7D20334FF0FF3142F82310274A54
:10081800FB7D60334FF0FF3142F82310FB7D01333D
:10082800FB75FB7D072BEBD91020FFF775FE102019
:10083800FFF784FE02F02CF801F01CF81C4B5B68F3
:100848001B4A43F000635360194B5B68184A43F036
:1008580000735360BFF34F8F00BFBFF36F8F00BFAC
:10086800134A7B689360BFF34F8F00BFBFF36F8F4E
:1008780000BF104B00221A600E4B00225A600D4B2D
:1008880000229A6062B600BF7B6804331B683B6134
:100898003B69FB60FB689847002318461837BD463C
:1008A80080BD00BF220100205C00002000E100E0C4
:1008B80000ED00E010E000E080B584B000AF7860A3
:1008C8007B68002B24D07B6802331B781A067B6870
:1008D80003331B781B041A437B6804331B781B0201
:1008E80013437A68053212781343FB60F868FFF700
:1008F80061FF034683F00103DBB2002B09D000231C
:10090800FB7207F10B030121184600F0E3F900E040
:1009180000BF1037BD4680BD80B584B000AF034628
:100928000A46FB711346BB71BB790B2B01D9002317
:1009380044E0FB790A2B04D9FB79FF2B01D0022371
:100948003CE000F05DFEFB79FF2B0CD100F044FF8A
:100958000346002B01D1032300E00223BB7300F000
:1009680063FEBB7B2AE0FA79BB7913440B2B04DDC9
:10097800FB79C3F10B03DBB200E0BB79BB71002349
:10098800FB7314E002210F4801F043FBFA79FB7B6B
:100998001344DBB2184600F0E5FE0346002B03D0F3
:1009A80000F042FE022309E0FB7B0133FB73FA7B74
:1009B800BB799A42E6D300F037FE03231846103776
:1009C800BD4680BD0000024080B584B000AF7860AD
:1009D8000023FB737B6802331B78012B12D106219D
:1009E8000220FFF799FF0346FB731D4B00221A7084
:1009F8001B4B00225A601A4B00229A60184B0022A7
:100A0800DA6016E07B6802331B78022B11D10421CF
:100A18000820FFF781FF0346FB73124B00221A7070
:100A2800104B00225A600F4B00229A600D4B002297
:100A3800DA60FB7B032B08D100F098F907F10F036C
:100A48000121184600F046F905E007F10F030121DE
:100A5800184600F03FF900BF1037BD4680BD00BF03
:100A6800000000201000002080B586B000AFF860BC
:100A7800B9601346FB8000F0C3FD0023FB8215E03C
:100A8800FA8ABB68D018FB8AFA6813441B7819469F
:100A980000F0F6FD03467B757B7D002B03D000F04C
:100AA800C3FD002309E0FB8A0133FB82FA8AFB8835
:100AB8009A42E5D300F0B8FD012318461837BD4621
:100AC80080BD000090B587B000AF786000237B61DF
:100AD8000023FB7400237B7300233B7300233B82BA
:100AE8000023FB817B68B3F807303B827B68B3F84F
:100AF8000930FB817B68D3F802307B617B69394A16
:100B0800934203D07B69384A934208D1374A7B69BC
:100B18005360364B0022DA60344B00229A607B68BF
:100B28009B79FB74786900F067F803467B737B7BDD
:100B3800012B4BD17B680B33FA7C92B2796918464A
:100B4800FFF792FF03463B733B7B012B37D1274BC3
:100B58009A68FB7C1344254A93603A8AFB89013BD7
:100B68009A4225D1214B0FCB00F0D2F803461F4AF9
:100B7800D3601E4B5B681B4A934209D11C4A1B4B2E
:100B880014460FCB84E80F00194B01221A700DE0B0
:100B9800164B5B68144A934208D1164A134B144605
:100BA8000FCB84E80F00134B01221A7000F0DEF817
:100BB80007F10C030121184600F08CF80EE007F14C
:100BC8000C030121184600F085F807E000237B7329
:100BD80007F10D030121184600F07CF800BF1C370F
:100BE800BD4690BD00800008000008087C00002079
:100BF800000000201000002080B485B000AF7860AD
:100C08000023FB737B68B3F1005F06D37B680D4A52
:100C1800934202D80123FB730CE07B68B3F1006FA9
:100C280006D37B68B3F1016F02D80123FB7301E09F
:100C38000023FB73FB7B18461437BD465DF8047B25
:100C4800704700BF0000032080B489B000AFF8608F
:100C5800B9607A600023FB7700237B61BB68B3F13E
:100C6800FF3F02D17B69DBB21DE0124B01229A6083
:100C78000023BB6108E0FA68BB6913441A780D4B7E
:100C88001A60BB690133BB61BA69BB689A42F2D387
:100C9800084B1B687A689A4202D10123FB7701E06E
:100CA8000023FB77FB7F18462437BD465DF8047B9D
:100CB800704700BF0030024080B582B000AFAB2360
:100CC800FB71FB1D0121184602F095FE00BF083795
:100CD800BD4680BD80B582B000AF786039603B68A2
:100CE800DBB21946786802F086FE00BF0837BD46B9
:100CF80080BD000080B500AF72B600BF034B002274
:100D08001A60024B00225A60FFF7F0FB10E000E087
:100D180090B488B000AF3C4684E80F00BB68002B55
:100D280001D100231AE07B68FB617A68BB68134431
:100D3800BB610023FB750C4B01229A6008E0FB693C
:100D48001B78FB75084AFB7D1360FB690133FB6167
:100D5800FA69BB699A42F2D3034B1B6818462037DD
:100D6800BD4690BC704700BF0030024080B584B0DB
:100D780000AF00F045FC012000F0F4FC0346002B16
:100D880003D000F051FC00233EE0214B7B600023A0
:100D9800FB6016E0FB6803F1006303F580437968A4
:100DA800FA680A4412681146184600F0A1FC034686
:100DB800002B03D000F038FC002325E0FB68043347
:100DC800FB60FB680F2BE5D9124B7B600023BB60EF
:100DD80014E0BA68104B13447968BA680A44126878
:100DE8001146184600F084FC0346002B03D000F09F
:100DF8001BFC002308E0BB680433BB60BB680F2BF7
:100E0800E7D900F011FC012318461037BD4680BD14
:100E180000000020100000201040000890B400AF2F
:100E2800124A134B14460FCB84E80F000F4B5B6834
:100E3800B3F1FF3F05D00F4A0C4B14460FCB84E8A3
:100E48000F000A4A0C4B14460FCB84E80F00074BDF
:100E58005B68B3F1FF3F05D0084A044B14460FCB3B
:100E680084E80F0000BFBD4690BC70477C0000209E
:100E7800004000080000002010400008100000207A
:100E880080B582B000AF00237B60FFF7C7FF1E4B21
:100E98001B78002B16D01D4802F098FD1A4B0FCB7B
:100EA800FFF736FF7860184BDB687A689A4209D1F9
:100EB800174802F08BFD174802F088FD164B0122F7
:100EC8001A701DE0154B1B78002B16D0144802F041
:100ED8007DFD124B0FCBFFF71BFF78600F4BDB68D4
:100EE8007A689A4209D10F4802F070FD0E4802F064
:100EF8006DFD094B02221A7002E00C4802F066FDF3
:100F08000837BD4680BD00BF00000020783B0008C0
:100F1800943B0008BC3B0008200000201000002083
:100F2800E03B0008FC3B0008243C0008483C000863
:100F380080B582B000AF00F017FD78601F4802F05E
:100F480045FD2FE04FF400611D4801F062F84FF4B1
:100F5800FA7000F015FD00F007FD02467B68D31A11
:100F680042F2107293421DD9164B1B78012B08D1FF
:100F7800154802F02BFD154B5B681846FFF71AFC65
:100F880018E0104B1B78022B08D1114802F01EFD07
:100F9800104B5B681846FFF70DFC0BE00E4802F09B
:100FA80015FD07E00D4B1B68184602F05BFB034676
:100FB800002BC7D10837BD4680BD00BF603C000884
:100FC8000010024020000020803C000800000020A3
:100FD800A03C000810000020C03C00085C00002075
:100FE80080B400AF044BDB681B0A03F00703184604
:100FF800BD465DF8047B704700ED00E080B483B027
:1010080000AF0346FB7197F90730002B0BDBFB7928
:1010180003F01F02074997F907305B09012000FA1E
:1010280002F241F8232000BF0C37BD465DF8047B6F
:10103800704700BF00E100E080B483B000AF034612
:101048003960FB7197F90730002B0ADB3B68DAB28D
:101058000C4997F907301201D2B20B4483F80023E8
:101068000AE03B68DAB20849FB7903F00F03043B56
:101078001201D2B20B441A7600BF0C37BD465DF898
:10108800047B704700E100E000ED00E080B489B027
:1010980000AFF860B9607A60FB6803F00703FB6192
:1010A800FB69C3F10703042B28BF0423BB61FB6959
:1010B8000433062B02D9FB69033B00E000237B6164
:1010C8004FF0FF32BB6902FA03F3DA43BB681A40F8
:1010D8007B699A404FF0FF317B6901FA03F3D943EA
:1010E8007B680B40134318462437BD465DF8047BE4
:1010F800704780B483B000AF78607B68DB6843F4E6
:1011080000527B68DA6000BF0C37BD465DF8047B8F
:10111800704780B483B000AF78607B681B6923F4A4
:1011280090427B681A617B685B6923F02A027B68BE
:101138005A6100BF0C37BD465DF8047B704700005C
:1011480080B485B000AF7860084B1A6B07497B689C
:1011580013430B63054B1A6B7B681340FB60FB68FA
:1011680000BF1437BD465DF8047B70470038024065
:1011780080B485B000AF7860084B5A6C07497B682B
:1011880013434B64054B5A6C7B681340FB60FB6848
:1011980000BF1437BD465DF8047B70470038024035
:1011A80080B582B000AF78604FF40061034800F06A
:1011B80030FF00BF0837BD4680BD00BF00100240A9
:1011C80080B500AF00F034FB00F010F800F0E2F852
:1011D80000F06CF800F07EF802F0BCFBFFF750FE60
:1011E800FFF7A6FE02F032FCFCE7000080B594B0E1
:1011F80000AF07F1200330220021184602F080FCDE
:1012080007F10C0300221A605A609A60DA601A61CA
:101218000023BB60234B1B6C224A43F080531364AA
:10122800204B1B6C03F08053BB60BB6800237B60C2
:101238001D4B1B681C4A43F4804313601A4B1B6800
:1012480003F480437B607B6802233B620123FB62DB
:1012580010233B630023BB6307F12003184600F00B
:10126800F3FE0346002B01D000F0EEF80F23FB60DD
:1012780000233B6100237B614FF4A053BB614FF413
:101288008053FB6107F10C030021184601F054F963
:101298000346002B01D000F0D7F800BF5037BD46F9
:1012A80080BD00BF003802400070004080B500AF2C
:1012B800064B074A1A60054800F06BFC0346002BF2
:1012C80001D000F0C1F800BF80BD00BF2801002098
:1012D8000030024080B58EB000AF07F11C03002239
:1012E8001A605A609A60DA601A615A619A613B1D05
:1012F80000221A605A609A60DA601A615A611020F6
:10130800FFF736FF0120FFF71BFF4FF4C0637B6038
:101318000223BB600323FB6000233B6100237B6146
:101328000723BB613B1D1946184801F0CAFCFFF7AB
:1013380057FE0346002200211846FFF7A7FE034682
:1013480019462520FFF778FE2520FFF757FE4FF4B2
:10135800E133FB6100233B6200237B620023BB6215
:101368000C23FB6200233B6300237B6307F11C0310
:101378001946074802F0C8F80548FFF7CAFE0448AE
:10138800FFF7B7FE00BF3837BD4680BD00000240FA
:101398000010014080B588B000AF07F10C030022AF
:1013A8001A605A609A60DA601A610023BB60234BA6
:1013B8001B6B224A43F001031363204B1B6B03F0A2
:1013C8000103BB60BB6800237B601C4B1B6B1B4A83
:1013D80043F010031363194B1B6B03F010037B607E
:1013E8007B6800220221164800F0FAFD00224FF423
:1013F8000061144800F0F4FD0223FB6001233B6107
:1014080000237B610023BB6107F10C0319460C48DC
:1014180000F04AFC4FF40063FB6001233B610023AA
:101428007B610023BB6107F10C031946054800F0F6
:101438003BFC00BF2037BD4680BD00BF00380240DE
:10144800000002400010024080B400AF72B600BF36
:1014580000BFFDE780B483B000AF00237B60104B72
:101468005B6C0F4A43F4804353640D4B5B6C03F48D
:1014780080437B607B6800233B60094B1B6C084AF8
:1014880043F080531364064B1B6C03F080533B609E
:101498003B6800BF0C37BD465DF8047B704700BF52
:1014A8000038024080B485B000AF78607B681B6864
:1014B8000B4A93420DD10023FB600A4B1B6B094A70
:1014C80043F480531363074B1B6B03F48053FB6097
:1014D800FB6800BF1437BD465DF8047B704700BF4A
:1014E800003002400038024080B400AF00BFFDE782
:1014F80080B400AF00BFFDE780B400AF00BFFDE7D8
:1015080080B400AF00BFFDE780B400AF00BFFDE7C7
:1015180080B400AF00BFBD465DF8047B704780B45F
:1015280000AF00BFBD465DF8047B704780B400AFD4
:1015380000BFBD465DF8047B7047000080B500AF72
:101548000A4B1B785A1CD1B2084A1170C72B06D90E
:101558000221074800F05DFD044B00221A7002F0DA
:1015680067FA00F0EDF900BF80BD00BF3001002030
:101578000000024080B500AF02F09AF900BF80BDBC
:1015880080B400AF084BD3F88830074A43F470039F
:10159800C2F88830044B4FF000629A6000BFBD4625
:1015A8005DF8047B704700BF00ED00E0DFF834D041
:1015B800FFF7E6FF0C480D490D4A002302E0D45816
:1015C800C4500433C4188C42F9D30A4A0A4C002385
:1015D80001E013600432A242FBD302F099FAFFF74C
:1015E800EFFD70470000022000000020600000208E
:1015F800083D0008600000204C030020FEE70000C2
:1016080080B400AF054B064A5A60044B054A5A603D
:1016180000BFBD465DF8047B704700BF003C024038
:1016280023016745AB89EFCD80B400AF054B1B693B
:10163800044A43F00043136100BFBD465DF8047BD4
:10164800704700BF003C024080B582B000AF7860B0
:1016580009E07B685A1E7A60002B01D1032309E058
:10166800012000F08DF9054BDB6803F48033002B73
:10167800EFD1002318460837BD4680BD003C024024
:1016880080B582B000AF78600B46FB704CF25030EA
:10169800FFF7DAFF0346002B01D0032322E0134BA8
:1016A8001B69124A23F440731361104B0F4A1B69DC
:1016B80013610E4B1B690D4A43F0010313617B68EC
:1016C800FA781A704CF25030FFF7BEFF0346002B31
:1016D80001D0032306E0054B1B69044A23F00103EC
:1016E8001361002318460837BD4680BD003C024000
:1016F80080B582B000AF786039604CF25030FFF7A7
:10170800A3FF0346002B01D0032324E0144B1B69DD
:10171800134A23F440731361114B1B69104A43F4B5
:10172800007313610E4B1B690D4A43F001031361EB
:101738007B683A681A604CF25030FFF785FF034621
:10174800002B01D0032306E0054B1B69044A23F054
:1017580001031361002318460837BD4680BD00BF4A
:10176800003C024080B582B000AF0346FB714CF2EA
:101778005030FFF769FF0346002B01D0032324E014
:10178800144B1B69134A23F0F8031361114B1A69B0
:10179800FB79DB0013430F4A43F0020313610D4B3F
:1017A8001B690C4A43F4803313614CF25030FFF745
:1017B8004BFF0346002B01D0032306E0054B1B69B2
:1017C800044A23F002031361002318460837BD4674
:1017D80080BD00BF003C024080B500AF4CF25030E5
:1017E800FFF732FF0346002B01D003231BE00F4B0A
:1017F8001B690E4A43F0040313610C4B1B690B4A27
:1018080043F4803313614CF25030FFF71DFF034659
:10181800002B01D0032306E0044B1B69034A23F085
:10182800040313610023184680BD00BF003C02403A
:1018380080B500AF0E4B1B680D4A43F4007313606C
:101848000B4B1B680A4A43F480631360084B1B6800
:10185800074A43F480731360032000F067F90F20F0
:1018680000F03EF8FFF7F6FD0023184680BD00BFE4
:10187800003C024080B500AF114B124A1A62104B6F
:1018880000221A620E4B104A5A620D4B00225A620D
:101898000B4B0E4A1A610A4B00221A61084BC122EF
:1018A8005A61074B00225A61054B01229A61044B89
:1018B80000229A6100F00CF80023184680BD00BF92
:1018C80000380240FFC9FEF633797704FF11602221
:1018D80080B400AF00BFBD465DF8047B70470000D0
:1018E80080B582B000AF7860124B1A68124B1B7833
:1018F80019464FF47A73B3FBF1F3B2FBF3F31846CE
:1019080000F03BF90346002B01D001230EE07B6871
:101918000F2B0AD8002279684FF0FF3000F011F938
:10192800064A7B681360002300E001231846083745
:10193800BD4680BD50000020580000205400002003
:1019480080B400AF064B1B781A46064B1B6813443D
:10195800044A136000BFBD465DF8047B704700BFB2
:10196800580000203401002080B400AF034B1B68EE
:101978001846BD465DF8047B704700BF340100205F
:1019880080B584B000AF7860FFF7EEFFB8607B6881
:10199800FB60FB68B3F1FF3F05D00A4B1B781A4682
:1019A800FB681344FB6000BFFFF7DEFF0246BB681D
:1019B800D31AFA689A42F7D800BF00BF1037BD465D
:1019C80080BD00BF5800002080B485B000AF7860AB
:1019D8007B6803F00703FB600C4BDB68BB60BA68ED
:1019E8004FF6FF031340BB60FB681A02BB68134342
:1019F80043F0BF6343F40033BB60044ABB68D36061
:101A080000BF1437BD465DF8047B704700ED00E069
:101A180080B400AF044BDB681B0A03F007031846C9
:101A2800BD465DF8047B704700ED00E080B483B0EC
:101A380000AF03463960FB7197F90730002B0ADBCA
:101A48003B68DAB20C4997F907301201D2B20B445D
:101A580083F800230AE03B68DAB20849FB7903F00F
:101A68000F03043B1201D2B20B441A7600BF0C37A5
:101A7800BD465DF8047B704700E100E000ED00E042
:101A880080B489B000AFF860B9607A60FB6803F091
:101A98000703FB61FB69C3F10703042B28BF042379
:101AA800BB61FB690433062B02D9FB69033B00E0E9
:101AB80000237B614FF0FF32BB6902FA03F3DA437C
:101AC800BB681A407B699A404FF0FF317B6901FA85
:101AD80003F3D9437B680B40134318462437BD46AC
:101AE8005DF8047B7047000080B582B000AF786075
:101AF8007B68013BB3F1807F01D301230FE00A4AE1
:101B08007B68013B53600F214FF0FF30FFF78EFFDA
:101B1800054B00229A60044B07221A6000231846DE
:101B28000837BD4680BD00BF10E000E080B582B038
:101B380000AF78607868FFF747FF00BF0837BD46F9
:101B480080BD80B586B000AF0346B9607A60FB738C
:101B580000237B61FFF75CFF78617A68B968786970
:101B6800FFF78EFF024697F90F3011461846FFF728
:101B78005DFF00BF1837BD4680BD80B582B000AF9D
:101B880078607868FFF7B0FF034618460837BD4607
:101B980080BD80B582B000AF78607B68002B01D132
:101BA80001230EE07B685B79DBB2002B05D17B68F3
:101BB80000221A717868FFF775FC7B6801225A7158
:101BC800002318460837BD4680BD80B582B000AFF7
:101BD80078607B680F221A6000F02AF803461A46DC
:101BE8007B689A6000F030F803461A467B681A61F1
:101BF80000F00EF803461A467B681A7600F044F89F
:101C080003461A467B685A6100BF0837BD4680BD47
:101C180080B400AF054B5B69DBB223F01F03DBB276
:101C28001846BD465DF8047B704700BF003C024083
:101C380080B400AF034B1B889BB21846BD465DF8C5
:101C4800047B7047163C024080B483B000AFAA23DF
:101C5800FB710C4B1B78DBB2CC2B02D1CC23FB7174
:101C680009E0084B1B78DBB2AA2B02D1AA23FB712F
:101C780001E05523FB71FB7918460C37BD465DF82A
:101C8800047B7047153C024080B400AF054B1B78BD
:101C9800DBB203F00C03DBB21846BD465DF8047BEB
:101CA800704700BF143C024080B489B000AF786030
:101CB800396000237B6100233B610023BB61002363
:101CC800FB616BE10122FB6902FA03F37B613B686C
:101CD8001B687A6913403B613A697B699A4240F014
:101CE8005A813B685B6803F00303012B05D03B680E
:101CF8005B6803F00303022B30D17B689B68BB61F0
:101D0800FB695B00032202FA03F3DB43BA69134061
:101D1800BB613B68DA68FB695B0002FA03F3BA69E6
:101D28001343BB617B68BA699A607B685B68BB6177
:101D38000122FB6902FA03F3DB43BA691340BB6172
:101D48003B685B681B0903F00102FB6902FA03F3B5
:101D5800BA691343BB617B68BA695A603B685B68C0
:101D680003F00303032B17D07B68DB68BB61FB69B7
:101D78005B00032202FA03F3DB43BA691340BB6139
:101D88003B689A68FB695B0002FA03F3BA6913437C
:101D9800BB617B68BA69DA603B685B6803F0030380
:101DA800022B23D1FB69DA087B68083253F822300A
:101DB800BB61FB6903F007039B000F2202FA03F3E0
:101DC800DB43BA691340BB613B681A69FB6903F0DE
:101DD80007039B0002FA03F3BA691343BB61FB696B
:101DE800DA087B680832B96943F822107B681B68F7
:101DF800BB61FB695B00032202FA03F3DB43BA69A8
:101E08001340BB613B685B6803F00302FB695B003E
:101E180002FA03F3BA691343BB617B68BA691A60B3
:101E28003B685B6803F44033002B00F0B480002368
:101E3800FB60604B5B6C5F4A43F4804353645D4BCB
:101E48005B6C03F48043FB60FB685B4AFB699B089F
:101E5800023352F82330BB61FB6903F003039B0094
:101E68000F2202FA03F3DB43BA691340BB617B68B4
:101E7800524A93422BD07B68514A934225D07B68C3
:101E8800504A93421FD07B684F4A934219D07B68CF
:101E98004E4A934213D07B684D4A93420DD07B68DB
:101EA8004C4A934207D07B684B4A934201D107239F
:101EB8000EE008230CE006230AE0052308E00423CB
:101EC80006E0032304E0022302E0012300E00023EC
:101ED800FA6902F0030292009340BA691343BB61A6
:101EE8003549FB699B080233BA6941F823203B4B0B
:101EF8009B68BB613B69DB43BA691340BB613B68C4
:101F08005B6803F48013002B03D0BA693B69134361
:101F1800BB61324ABB699360304BDB68BB613B698C
:101F2800DB43BA691340BB613B685B6803F4001389
:101F3800002B03D0BA693B691343BB61274ABB69CD
:101F4800D360264B5B68BB613B69DB43BA691340CE
:101F5800BB613B685B6803F40033002B03D0BA69AC
:101F68003B691343BB611D4ABB6953601B4B1B682C
:101F7800BB613B69DB43BA691340BB613B685B6883
:101F880003F48033002B03D0BA693B691343BB6168
:101F9800124ABB691360FB690133FB61FB690F2BB4
:101FA8007FF690AE00BF00BF2437BD465DF8047BC6
:101FB800704700BF0038024000380140000002406E
:101FC8000004024000080240000C024000100240D9
:101FD8000014024000180240001C0240003C01406E
:101FE80080B483B000AF78600B467B8013467B706B
:101FF8007B78002B03D07A887B689A6103E07B8822
:102008001A047B689A6100BF0C37BD465DF8047BF3
:10201800704780B485B000AF78600B467B807B68E2
:102028005B69FB607A88FB6813401A04FB68D94334
:102038007B880B401A437B689A6100BF1437BD4602
:102048005DF8047B7047000080B586B000AF78600B
:102058007B68002B01D1012367E27B681B6803F0D2
:102068000103002B75D0884B9B6803F00C03042BED
:102078000CD0854B9B6803F00C03082B12D1824BC4
:102088005B6803F48003B3F5800F0BD17E4B1B68AC
:1020980003F40033002B5BD07B685B68002B57D1BF
:1020A800012342E27B685B68B3F5803F06D1764B3B
:1020B8001B68754A43F4803313601DE07B685B68D6
:1020C800B3F5A02F0CD1704B1B686F4A43F48023E3
:1020D80013606D4B1B686C4A43F4803313600BE04C
:1020E800694B1B68684A23F480331360664B1B688E
:1020F800654A23F4802313607B685B68002B13D048
:10210800FFF732FC386108E0FFF72EFC02463B6916
:10211800D31A642B01D9032307E25B4B1B6803F432
:102128000033002BF0D014E0FFF71EFC386108E004
:10213800FFF71AFC02463B69D31A642B01D9032323
:10214800F3E1514B1B6803F40033002BF0D100E09E
:1021580000BF7B681B6803F00203002B63D04A4B67
:102168009B6803F00C03002B0BD0474B9B6803F0D4
:102178000C03082B1CD1444B5B6803F48003002B31
:1021880016D1414B1B6803F00203002B05D07B6876
:10219800DB68012B01D00123C7E13B4B1B6823F00F
:1021A800F8027B681B69DB00374913430B603AE090
:1021B8007B68DB68002B20D0344B01221A60FFF7C4
:1021C800D3FB386108E0FFF7CFFB02463B69D31A1F
:1021D800022B01D90323A8E12B4B1B6803F0020350
:1021E800002BF0D0284B1B6823F0F8027B681B6992
:1021F800DB00254913430B6015E0244B00221A60CD
:10220800FFF7B2FB386108E0FFF7AEFB02463B6917
:10221800D31A022B01D9032387E11B4B1B6803F058
:102228000203002BF0D17B681B6803F00803002B26
:1022380036D07B685B69002B16D0154B01221A60DB
:10224800FFF792FB386108E0FFF78EFB02463B6917
:10225800D31A022B01D9032367E10B4B5B6F03F001
:102268000203002BF0D01BE0094B00221A60FFF795
:102278007BFB38610EE0FFF777FB02463B69D31A18
:10228800022B07D9032350E10038024000004742DF
:10229800800E4742884B5B6F03F00203002BEAD1A4
:1022A8007B681B6803F00403002B00F09780002371
:1022B800FB75814B1B6C03F08053002B0FD100235F
:1022C800BB607D4B1B6C7C4A43F0805313647A4B94
:1022D8001B6C03F08053BB60BB680123FB75774B15
:1022E8001B6803F48073002B18D1744B1B68734A66
:1022F80043F480731360FFF737FB386108E0FFF79A
:1023080033FB02463B69D31A022B01D903230CE1A4
:102318006A4B1B6803F48073002BF0D07B689B68C2
:10232800012B06D1644B1B6F634A43F0010313670B
:102338001CE07B689B68052B0CD15F4B1B6F5E4ACA
:1023480043F0040313675C4B1B6F5B4A43F00103C4
:1023580013670BE0584B1B6F574A23F001031367B1
:10236800554B1B6F544A23F0040313677B689B6823
:10237800002B15D0FFF7F8FA38610AE0FFF7F4FAF6
:1023880002463B69D31A41F28832934201D90323AA
:10239800CBE0494B1B6F03F00203002BEED014E097
:1023A800FFF7E2FA38610AE0FFF7DEFA02463B6916
:1023B800D31A41F28832934201D90323B5E03E4B48
:1023C8001B6F03F00203002BEED1FB7D012B05D11F
:1023D800394B1B6C384A23F0805313647B689B6924
:1023E800002B00F0A180344B9B6803F00C03082BF2
:1023F8005CD07B689B69022B41D1314B00221A606B
:10240800FFF7B2FA386108E0FFF7AEFA02463B6917
:10241800D31A022B01D9032387E0274B1B6803F04B
:102428000073002BF0D17B68DA697B681B6A1A435A
:102438007B685B6A9B011A437B689B6A5B08013B6C
:102448001B041A437B68DB6A1B061B4913434B605A
:102458001B4B01221A60FFF787FA386108E0FFF783
:1024680083FA02463B69D31A022B01D903235CE0A5
:10247800114B1B6803F00073002BF0D054E0104B95
:1024880000221A60FFF770FA386108E0FFF76CFA6B
:1024980002463B69D31A022B01D9032345E0064BB8
:1024A8001B6803F00073002BF0D13DE07B689B694B
:1024B800012B07D1012338E00038024000700040AA
:1024C800600047421B4B5B68FB607B689B69012B84
:1024D80028D0FB6803F480027B68DB699A4221D12B
:1024E800FB6803F03F027B681B6A9A421AD1FA68BC
:1024F80047F6C07313407A68526A9201934211D129
:10250800FB6803F440327B689B6A5B08013B1B0451
:102518009A4207D1FB6803F070627B68DB6A1B068E
:102528009A4201D0012300E0002318461837BD461F
:1025380080BD00BF0038024080B584B000AF78602D
:1025480039607B68002B01D10123CCE0684B1B6804
:1025580003F007033A689A420CD9654B3A68D2B23D
:102568001A70634B1B6803F007033A689A4201D05C
:102578000123B8E07B681B6803F00203002B20D01E
:102588007B681B6803F00403002B05D0594B9B683C
:10259800584A43F4E05393607B681B6803F00803D0
:1025A800002B05D0534B9B68524A43F46043936019
:1025B800504B9B6823F0F0027B689B684D4913439E
:1025C8008B607B681B6803F00103002B44D07B6899
:1025D8005B68012B07D1474B1B6803F40033002BC2
:1025E80019D101237FE07B685B68022B03D07B68ED
:1025F8005B68032B07D13F4B1B6803F00073002B6C
:1026080009D101236FE03B4B1B6803F00203002B49
:1026180001D1012367E0374B9B6823F003027B68F5
:102628005B68344913438B60FFF79EF9F8600AE052
:10263800FFF79AF90246FB68D31A41F288329342AF
:1026480001D903234FE02B4B9B6803F00C027B68F6
:102658005B689B009A42EBD1254B1B6803F007038C
:102668003A689A420CD2224B3A68D2B21A70204B7E
:102678001B6803F007033A689A4201D0012332E04D
:102688007B681B6803F00403002B08D0194B9B6878
:1026980023F4E0527B68DB68164913438B607B6840
:1026A8001B6803F00803002B09D0124B9B6823F426
:1026B80060427B681B69DB000E4913438B6000F0A6
:1026C80021F802460B4B9B681B0903F00F030A49CC
:1026D800CB5C22FA03F3094A1360094B1B681846BE
:1026E800FFF7FEF8002318461037BD4680BD00BF2F
:1026F800003C024000380240E03C00085000002046
:10270800540000202DE9B04F90B000AF00237B6348
:102718000023FB6300233B630023BB63594B9B6887
:1027280003F00C03082B0DD0082B00F2A180002B1E
:1027380002D0042B03D09BE0534BBB639BE0534B6D
:10274800BB6398E04F4B5B6803F03F037B634D4BE3
:102758005B6803F48003002B28D04A4B5B689B0915
:1027680000223B627A623B6AC3F308000021474BB0
:1027780003FB01F2002300FB03F31344434AA0FBCD
:102788000212FA620A46BA62FA6A1344FB627B6B67
:102798000022BB61FA61D7E90623D7E90A01FDF7F0
:1027A8000FFD02460B461346FB6353E0354B5B684F
:1027B8009B0900223B617A613B69C3F3080A4FF029
:1027C800000B52465B464FF000004FF000015901E4
:1027D80041EAD261500102460B46B2EB0A0863EBAC
:1027E8000B094FF000024FF000034FEA891343EA48
:1027F80098634FEA8812B2EB080463EB09054FF0BF
:1028080000024FF00003EB0043EA5473E200144661
:102818001D4614EB0A033B6045EB0B037B604FF04E
:1028280000024FF00003D7E9004529468B022146F4
:1028380043EA915321468A02104619467B6B0022CF
:10284800BB60FA60D7E90223FDF7BAFC02460B46E3
:102858001346FB630B4B5B681B0C03F0030301334C
:102868005B003B63FA6B3B6BB2FBF3F3BB6302E0C9
:10287800054BBB6300BFBB6B18464037BD46BDE880
:10288800B08F00BF003802400024F40040787D017A
:1028980080B582B000AFFFF767F878605D4B1B68C2
:1028A8005C4A43F00103136008E0FFF75DF8024655
:1028B8007B68D31A022B01D90323A7E0554B1B6869
:1028C80003F00203002BF0D0524B1B68514A43F02F
:1028D80080031360FFF748F878604E4B00229A6037
:1028E8000AE0FFF741F802467B68D31A41F28832C2
:1028F800934201D9032389E0464B9B6803F00C03FC
:10290800002BEED1FFF730F87860424B1B68414A44
:1029180023F45023136008E0FFF726F802467B688B
:10292800D31A642B01D9032370E03A4B1B6803F4D4
:102938000033002BF0D1FFF717F87860354B1B6890
:10294800344A23F08073136008E0FFF70DF802465D
:102958007B68D31A022B01D9032357E02D4B1B6840
:1029680003F00073002BF0D1FEF7FEFF7860294BCF
:102978001B68284A23F08063136008E0FEF7F4FF21
:1029880002467B68D31A022B01D903233EE0214B70
:102998001B6803F00063002BF0D11E4B1E4A5A60DF
:1029A8001C4B1E4AC3F884201A4BDB68194A23F4CF
:1029B800F853D360174BDB68164A23F40053D360EF
:1029C800144BDB68134A43F41F03D360114BDB68D5
:1029D800104A43F40013D3600E4B5B6F0D4A23F08B
:1029E800010353670B4B5B6F0A4A43F080735367CD
:1029F8000B4B0C4A1A600C4B1B681846FEF770FF0D
:102A08000346002B01D0012300E0002318460837B5
:102A1800BD4680BD00380240103000040030002060
:102A2800500000200024F4005400002080B48BB033
:102A380000AFF860B9607A60FB681A68BB687B61B0
:102A48007B6993FAA3F33B613B69BB61BB69002BCC
:102A580001D1202303E0BB69B3FA83F3DBB25B0047
:102A6800032101FA03F3DB431A40BB683B623B6A6C
:102A780093FAA3F3FB61FB697B627B6A002B01D1AC
:102A8800202303E07B6AB3FA83F3DBB25B00796847
:102A980001FA03F31A43FB681A6000BF2C37BD46DE
:102AA8005DF8047B704780B485B000AFF860B9600A
:102AB8007A60FB685A68BB68DB431A40BB68796870
:102AC80001FB03F31A43FB685A6000BF1437BD4685
:102AD8005DF8047B704780B48BB000AFF860B960D4
:102AE8007A60FB689A68BB687B617B6993FAA3F399
:102AF8003B613B69BB61BB69002B01D1202303E02B
:102B0800BB69B3FA83F3DBB25B00032101FA03F379
:102B1800DB431A40BB683B623B6A93FAA3F3FB6151
:102B2800FB697B627B6A002B01D1202303E07B6A6F
:102B3800B3FA83F3DBB25B00796801FA03F31A4353
:102B4800FB689A6000BF2C37BD465DF8047B704770
:102B580080B48BB000AFF860B9607A60FB68DA685F
:102B6800BB687B617B6993FAA3F33B613B69BB61FB
:102B7800BB69002B01D1202303E0BB69B3FA83F3BF
:102B8800DBB25B00032101FA03F3DB431A40BB68A5
:102B98003B623B6A93FAA3F3FB61FB697B627B6A46
:102BA800002B01D1202303E07B6AB3FA83F3DBB265
:102BB8005B00796801FA03F31A43FB68DA6000BF27
:102BC8002C37BD465DF8047B704780B48BB000AFEE
:102BD800F860B9607A60FB681A6ABB687B617B69D8
:102BE80093FAA3F33B613B69BB61BB69002B01D13D
:102BF800202303E0BB69B3FA83F3DBB29B000F2108
:102C080001FA03F3DB431A40BB683B623B6A93FA61
:102C1800A3F3FB61FB697B627B6A002B01D1202354
:102C280003E07B6AB3FA83F3DBB29B00796801FAAD
:102C380003F31A43FB681A6200BF2C37BD465DF8E0
:102C4800047B704780B48BB000AFF860B9607A60DD
:102C5800FB685A6ABB681B0A7B617B6993FAA3F31A
:102C68003B613B69BB61BB69002B01D1202303E0B9
:102C7800BB69B3FA83F3DBB29B000F2101FA03F3BC
:102C8800DB431A40BB681B0A3B623B6A93FAA3F317
:102C9800FB61FB697B627B6A002B01D1202303E087
:102CA8007B6AB3FA83F3DBB29B00796801FA03F31A
:102CB8001A43FB685A6200BF2C37BD465DF8047B97
:102CC800704780B58AB000AF7860396000237B62B6
:102CD80000233B623B681B68BB61BB6993FAA3F3A3
:102CE8007B617B69FB61FB69002B01D1202303E039
:102CF800FB69B3FA83F3DBB27B6257E03B681A687F
:102D080001217B6A01FA03F313403B623B6A002B03
:102D180049D03B685B68012B03D03B685B68022B9A
:102D28000DD13B689B681A46396A7868FFF7D3FE6D
:102D38003B68DB681A46396A7868FFF7B4FE3B6877
:102D48001B691A46396A7868FFF702FF3B685B68B7
:102D5800022B21D13B6AFB60FB6893FAA3F3BB60AB
:102D6800BB683B613B69002B01D1202303E03B6931
:102D7800B3FA83F3DBB2072B07D83B685B691A46C3
:102D8800396A7868FFF721FF06E03B685B691A46F5
:102D9800396A7868FFF756FF3B685B681A46396AF4
:102DA8007868FFF743FE7B6A01337B623B681A68E9
:102DB8007B6A22FA03F3002BA0D100231846283798
:102DC800BD4680BD80B400AF044B9B6803F00C0384
:102DD8001846BD465DF8047B704700BF00380240C6
:102DE80080B400AF044B9B6803F0F0031846BD465F
:102DF8005DF8047B704700BF0038024080B400AF24
:102E0800044B9B6803F4E0531846BD465DF8047B09
:102E1800704700BF0038024080B400AF044B9B6885
:102E280003F460431846BD465DF8047B704700BF55
:102E38000038024080B400AF044B5B6803F48003A1
:102E48001846BD465DF8047B704700BF0038024055
:102E580080B400AF044B5B689B09C3F308031846B2
:102E6800BD465DF8047B70470038024080B400AF6F
:102E7800044B5B6803F440331846BD465DF8047B99
:102E8800704700BF0038024080B400AF044B5B6855
:102E980003F03F031846BD465DF8047B704700BF4A
:102EA8000038024080B582B000AF786000F020F8AA
:102EB80002467B681A607B681B68184600F040F879
:102EC80002467B685A607B685B68184600F04EF8DB
:102ED80002467B689A607B685B68184600F05AF87F
:102EE80002467B68DA6000BF0837BD4680BD000037
:102EF80080B582B000AF00237B60FFF763FF034615
:102F0800082B0CD0082B0FD8002B02D0042B03D091
:102F18000AE0094B7B600AE0084B7B6007E0082069
:102F280000F04CF8786002E0034B7B6000BF7B68E0
:102F380018460837BD4680BD0024F40040787D015E
:102F480080B582B000AF7860FFF74AFF03461B09DF
:102F580003F00F03044AD35C1A467B68D340184633
:102F68000837BD4680BD00BFE03C000880B582B090
:102F780000AF7860FFF742FF03469B0A044AD35C20
:102F88001A467B68D34018460837BD4680BD00BF47
:102F9800F03C000880B582B000AF7860FFF73CFFD6
:102FA80003465B0B044AD35C1A467B68D340184639
:102FB8000837BD4680BD00BFF03C000890B587B01B
:102FC80000AF786000237B610023FB6000233B6136
:102FD800FFF730FFF860FB68002B04D0FB68B3F5FF
:102FE800800F03D005E0124B7B6105E0114B7B613C
:102FF80002E00F4B7B6100BF7B68082B13D1FFF702
:1030080043FF02467B69B3FBF2F4FFF721FF034657
:1030180003FB04F4FFF72AFF03461B0C01335B0094
:10302800B4FBF3F33B613B6918461C37BD4690BDC2
:103038000024F40040787D0180B483B000AF78604C
:103048007B68DB6803F40053B3F5005F0CBF012312
:103058000023DBB218460C37BD465DF8047B704789
:1030680080B483B000AF786039607B681B6923F453
:1030780040523B681A437B681A6100BF0C37BD4653
:103088005DF8047B704780B483B000AF7860396026
:103098007B685B6923F440723B681A437B685A611A
:1030A80000BF0C37BD465DF8047B70472DE9B04F73
:1030B800C0B000AFC7F8FC00C7F8F810C7F8F42094
:1030C800C7F8F030D7F8F430B3F5004F40F00C8172
:1030D800D7F8F8300022C7F8E830C7F8EC20D7E96D
:1030E8003A4522462B46911839665B417B66D7E9FB
:1030F8001823214612EB0108294643EB01094FF03A
:1031080000024FF000034FEAC90343EA58734FEA3D
:10311800C80290469946234618EB0303C7F8E030E7
:103128002B4649EB0303C7F8E430D7F8F030002208
:103138009A4693461AEB0A03BB654BEB0B03FB65F8
:10314800D7E91623D7E93801FDF73AF802460B46C6
:10315800644BA3FB02235B099BB21B019CB2D7F80B
:10316800F8300022C7F8D830C7F8DC20D7E936890C
:1031780042464B46911839655B417B65D7E9142374
:1031880041465118B96449464B41FB644FF000026F
:103198004FF00003D7E912AB5946CB00514643EA3A
:1031A80051735146CA0010461946034642469B18B9
:1031B800C7F8D0304B460A4642EB0303C7F8D43071
:1031C800D7F8F0300022C7F8C830C7F8CC20D7E9C4
:1031D80032120B46DB183B64134642EB03037B6455
:1031E800D7E91023D7E93401FCF7EAFF02460B467A
:1031F80011463C4BA3FB01235B09642202FB03F34A
:10320800CB1ADB0003F13202364BA3FB02235B0926
:103218009BB25B009BB203F4F8739BB223449CB24D
:10322800D7F8F8300022C7F8C030C7F8C420D7E96B
:10323800308942464B469118B9635B41FB63D7E935
:103248000E2341465118396349464B417B634FF081
:1032580000024FF00003D7E90CAB5946CB005146AA
:1032680043EA51735146CA0010461946034642467E
:103278009B18C7F8B8304B460A4642EB0303C7F819
:10328800BC30D7F8F0300022C7F8B030C7F8B42007
:10329800D7E92C120B46DB18BB62134642EB03033B
:1032A800FB62D7E90A23D7E92E01FCF789FF02461A
:1032B8000B460C4BA3FB02135B09642101FB03F3D0
:1032C800D31ADB003233074AA2FB03235B099BB204
:1032D80003F007039BB223449BB21A46D7F8FC308D
:1032E8009A6008E11F85EB51D7F8F8300022C7F83B
:1032F800A830C7F8AC20D7E92A8942464B4691182E
:1033080039625B417B62D7E9082341465418494634
:1033180043EB01054FF000024FF00003EB0043EAD6
:103328005473E20014461D464346E318C7F8A0301C
:103338004B4645EB0303C7F8A430D7F8F03000221A
:10334800C7F89830C7F89C204FF000024FF00003F0
:10335800D7E9264529468B00214643EA9173214641
:103368008A00D7E92801FCF72BFF02460B46654B7C
:10337800A3FB02235B099BB21B019CB2D7F8F83070
:103388000022C7F89030C7F89420D7E9248942462C
:103398004B469118B9615B41FB61D7E90623414669
:1033A8005118396149464B417B614FF000024FF09B
:1033B8000003D7E904AB5946CB00514643EA5173A1
:1033C8005146CA0010461946034642469B18C7F89C
:1033D80088304B460A4642EB0303C7F88C30D7F8CF
:1033E800F0300022C7F88030C7F884204FF0000280
:1033F8004FF00003D7E9208949468B00414643EA4C
:10340800917341468A00D7E92201FCF7D9FE0246AA
:103418000B4611463B4BA3FB01235B09642202FBCD
:1034280003F3CB1A1B013233364AA2FB03235B0991
:103438009BB203F0F0039BB223449CB2D7F8F83058
:103448000022BB67FA67D7E91E8942464B469118A6
:10345800B9605B41FB60D7E90223414651183960E6
:1034680049464B417B604FF000024FF00003D7E91B
:1034780000AB5946CB00514643EA51735146CA0046
:1034880010461946034642469B183B674B460A4678
:1034980042EB03037B67D7F8F0300022BB66FA667D
:1034A8004FF000024FF00003D7E91A8949468B0014
:1034B800414643EA917341468A00D7E91C01FCF76B
:1034C8007FFE02460B460F4BA3FB02135B096421E8
:1034D80001FB03F3D31A1B0132330A4AA2FB03236D
:1034E8005B099BB203F00F039BB223449BB21A46BD
:1034F800D7F8FC309A6000BF07F58077BD46BDE875
:10350800B08F00BF1F85EB5180B588B000AF7860E1
:1035180039600123FB770023BB617868FFF78CFDD6
:103528000346002B5ED17B68DB6823F4164323F047
:103538000C033A6851683A68D26811433A681269CC
:1035480011433A6892690A431A437B68DA603B6818
:103558009B6819467868FFF783FD3B685B691946E5
:103568007868FFF790FD07F108031846FFF79AFC03
:103578007B681F4A934202D17B69BB6121E07B686B
:103588001C4A934202D13B69BB611AE07B681A4A24
:10359800934202D13B69BB6113E07B68174A9342AF
:1035A80002D17B69BB610CE07B68154A934202D16A
:1035B8003B69BB6105E07B68124A934201D13B69D4
:1035C800BB61BB69002B0DD03B681B68002B09D081
:1035D8000023FB773B689A693B681B68B969786880
:1035E800FFF764FDFB7F18462037BD4680BD00BF4E
:1035F8000010014000440040004800400014014011
:10360800004C00400050004080B483B000AF7860A8
:1036180072B600BF7B680022A3F800217B680022F5
:10362800A3F802217B680022A3F8042162B600BF38
:1036380000BF0C37BD465DF8047B704780B483B08B
:1036480000AF78607B68B3F804319BB2B3F5807F34
:103658000CBF01230023DBB218460C37BD465DF8CA
:10366800047B704780B483B000AF78607B68B3F8A0
:1036780004319BB2002B0CBF01230023DBB2184698
:103688000C37BD465DF8047B704780B483B000AF4B
:1036980003463960FB713B683A68B2F8002192B280
:1036A8001344FA791A7072B600BF3B68B3F8003158
:1036B8009BB201339BB2DBB29AB23B68A3F80021FC
:1036C8003B68B3F804319BB201339AB23B68A3F864
:1036D800042162B600BF00BF0C37BD465DF8047B0D
:1036E800704780B485B000AF78607B687A68B2F8BC
:1036F800022192B213441B78FB7372B600BF7B6839
:10370800B3F802319BB201339BB2DBB29AB27B6849
:10371800A3F802217B68B3F804319BB2013B9AB24B
:103728007B68A3F8042162B600BFFB7B18461437F8
:10373800BD465DF8047B704780B483B000AF786005
:103748007B681B6803F02003202B0CBF0123002398
:10375800DBB218460C37BD465DF8047B704780B471
:1037680083B000AF78607B681B6803F08003802B10
:103778000CBF01230023DBB218460C37BD465DF8A9
:10378800047B704780B483B000AF78607B686FF0CB
:1037980020021A6000BF0C37BD465DF8047B7047F5
:1037A80080B489B000AF78607B680C33FB60FB683D
:1037B80053E8003FBB60BB6843F02003FB617B68B4
:1037C8000C33FA69BA617B617969BA6941E8002307
:1037D8003B613B69002BE7D100BF00BF2437BD46E2
:1037E8005DF8047B704780B489B000AF78607B686F
:1037F8000C33FB60FB6853E8003FBB60BB6843F0D9
:103808008003FB617B680C33FA69BA617B61796973
:10381800BA6941E800233B613B69002BE7D100BF4F
:1038280000BF2437BD465DF8047B704780B489B07B
:1038380000AF78607B680C33FB60FB6853E8003F9F
:10384800BB60BB6823F08003FB617B680C33FA69BB
:10385800BA617B617969BA6941E800233B613B69D8
:10386800002BE7D100BF00BF2437BD465DF8047BBD
:10387800704780B483B000AF78607B685B68DBB268
:1038880018460C37BD465DF8047B704780B483B09A
:1038980000AF78600B467B807B88C3F308027B68A7
:1038A8005A6000BF0C37BD465DF8047B70470000C6
:1038B80080B582B000AF2548FFF751FF0346002BC3
:1038C8001FD0234B1B6803F583731846FFF7CAFE06
:1038D800034683F00103DBB2002B0FD01C4B1B689F
:1038E80003F583731846FFF7FCFE0346FB71FB796B
:1038F8009BB219461548FFF7C9FF02E01348FFF7C6
:1039080095FF1248FFF718FF0346002B1AD00F48FF
:10391800FFF7AFFF0346FB710D4B1B681846FFF717
:103928008DFE034683F00103DBB2002B07D0084B62
:103938001B681A46FB7911461846FFF7A6FE03488E
:10394800FFF720FF00BF0837BD4680BD00100140CB
:103958005C00002080B500AF084B1B6803F583733B
:103968001846FFF751FE054B1B681846FFF74CFE3B
:103978000348FFF715FF00BF80BD00BF5C000020B3
:103988000010014080B582B000AF0346FB7100BF54
:103998000C4B1B6803F583731846FFF74FFE03466D
:1039A800002BF5D1074B1B6803F58372FB79114691
:1039B8001846FFF76AFE0448FFF715FF00BF0837EF
:1039C800BD4680BD5C0000200010014080B582B07B
:1039D80000AF786006E07B685A1C7A601B7818464E
:1039E800FFF7D0FF7B681B78002BF4D100BF00BF26
:1039F8000837BD4680BD80B584B000AF78600B46FF
:103A0800FB700023FB7309E07B685A1C7A601B7803
:103A18001846FFF7B7FFFB7B0133FB73FA7BFB7894
:103A28009A42F1D300BF00BF1037BD4680BD0000E9
:103A380080B400AF044B1B680133034A136000BF16
:103A4800BD465DF8047B70474803002080B582B00E
:103A580000AF00237B6022E07A6813469B00134482
:103A68009B00144A13443B603B681B7C002B13D01B
:103A78003B68DB68184600F023F802463B689B6801
:103A88009A4209D30C4B1A683B68DA603B681B689A
:103A98003A685268104698477B6801337B60074B49
:103AA8001B687A689A42D7D300BF00BF0837BD4663
:103AB80080BD00BF2800002048030020240000200B
:103AC80080B582B000AF7860054B1B6819467868EE
:103AD80000F008F8034618460837BD4680BD00BF09
:103AE8004803002080B483B000AF786039603A683A
:103AF8007B68D31A18460C37BD465DF8047B7047BF
:103B080002440346934200D1704703F8011BF9E7CA
:103B180070B50D4D0D4C641BA4100026A64209D1AA
:103B28000B4D0C4C00F018F8641BA4100026A6429C
:103B380005D170BD55F8043B98470136EEE755F8B6
:103B4800043B98470136F2E7003D0008003D0008B5
:103B5800003D0008043D0008F8B500BFF8BC08BCEB
:103B68009E467047F8B500BFF8BC08BC9E46704733
:103B78004669726D77617265203120435243206334
:103B88006865636B696E672E2E2E0A004669726D32
:103B980077617265203120435243207375636365F2
:103BA800737366756C6C7920636865636B65640A0A
:103BB8000000000043686F73696E67204669726D84
:103BC80077617265203120666F72206175746F208D
:103BD800626F6F740A0000004669726D77617265E2
:103BE80020322043524320636865636B696E672EF9
:103BF8002E2E0A004669726D776172652032204365
:103C08005243207375636365737366756C6C7920B2
:103C1800636865636B65640A0000000043686F733E
:103C2800696E67204669726D776172652032206619
:103C38006F72206175746F20626F6F740A000000E4
:103C48004E6F206669726D77617265206465637472
:103C58006563746564000000426F6F746C6F616423
:103C68006572207761697420666F7220636F6D6D6D
:103C7800616E640A0000000054696D656F75742CEC
:103C8800206A756D7020746F204669726D77617255
:103C98006520310A0000000054696D656F75742C49
:103CA800206A756D7020746F204669726D77617235
:103CB8006520320A0000000054696D656F75742C28
:103CC800206E6F206669726D776172652064656326
:103CD8007465637465640000000000000000000063
:103CE800010203040607080900000000010203049A
:083CF80000C5FF7F0100000080
:043D0000AD01000809
:043D04008901000829
:103D08000000000000800008000000000000000023
:103D1800000000000000080800000000000000008B
:103D2800FF00000002000000A911000800000000C8
:103D3800C800000000000000010000006D05000838
:103D4800000000000A000000000000000100000060
:103D58000024F400100000000100000038010020D9
:04000005080015B525
:00000001FF
